:020000041008E2
:4000000000780408F90208100D00000061030810610308106103081061030810000000000000000000000000000000005D0308105D030810000000005D0308105D0308104C
:400040005D0308105D0308105D0308105D0308105D0308105D0308105D0308105D0308105D0308105D0308105D0308105D0308105D0308105D0308105D0308105D03081000
:400080005D0308105D0308105D0308105D0308105D0308105D0308105D0308105D0308105D0308105D0308105D0308105D0308105D030810350908105D0308105D030810E2
:4000C0005D0308105D0308105D0308105D0308105D0308105D0308105D0308105D0308105D0308105D0308105D0308105D0308105D0308105D0308105D0308105D03081080
:400100005D0308105D0308105D0308105D0308105D0308105D0308105D0308105D0308105D0308105D0308105D0308105D0308105D0308105D0308105D0308105D0308103F
:400140005D0308105D0308105D0308105D0308105D0308105D0308105D0308105D0308105D0308105D0308105D0308105D0308105D0308105D0308105D0308105D030810FF
:400180005D0308105D0308105D0308105D0308105D0308105D0308105D0308105D0308105D0308105D0308105D0308105D0308105D0308105D0308105D0308105D030810BF
:4001C0005D0308105D0308105D0308105D0308105D0308105D0308105D0308105D0308105D0308105D0308105D0308105D0308105D0308105D0308105D0308105D0308107F
:400200005D0308105D0308105D0308105D0308105D0308105D0308105D0308105D0308105D0308105D0308105D0308105D0308105D0308105D0308105D0308105D0308103E
:400240005D0308105D0308105D0308105D0308105D0308105D0308105D0308105D0308105D0308105D0308105D0308105D0308105D0308105D0308105D0308105D030810FE
:400280005D0308105D0308105D03081010B5054C237833B9044B13B10448AFF300800123237010BD1069020800000000E02D0810084B10B51BB108490848AFF30080084895
:4002C000036803B910BD074B002BFBD0BDE81040184700BF0000000014690208E02D0810D8460208000000007047EFF3108072B6704780F310887047FFF7F6FF72B6114CA1
:40030000114DAC4209DA21686268A368043BA2BFC858D050FAE70C34F3E70C490C4A00209142BCBF41F8040BFAE70A480A490860BFF34F8F00F020F900F0FAF800F01EF885
:40034000FEE700004C0D0910640D091010690208107502080040020808ED00E0FEE7FEE700B504207146084202D0EFF3098001E0EFF30880043000F099FFFEE708B562B6C9
:4003800000F02AF900F09CFA00F02EF900F092FA0028F9D000F0B2F9F6E700BF704700BF5C4AD2F8803303F00F0303F1D00152F8212002F00702032A04D0042A05D092B9B1
:4003C000554914E0554A116811E003F1C002514951F8222002F01F02112A06D0132A04D04FF4FA4103E04E4901E04FF400418BBB484BD3F8902502F00100D3F88825C2F37C
:400400000172D3F8883513F0405F07D0414BD3F88835C3F30173012B02D102E0012300E0002303B108B9032A46D13A48D0F88025C2F31103D0F88425C2F30C02D0F8800510
:40044000C0F300600130B1FBF2F202FB03F2B2FBF0F131E0012B2FD12E4BD3F8402602F00100D3F80026C2F30172D3F8003613F0405F07D0274BD3F80036C3F30173012BF2
:4004800002D102E0012300E0002303B108B9032A12D12048D0F8002602F07F02D0F80036C3F30423D0F80006C0F3044002FB01F2B2FBF3F2B2FBF0F1164BD3F88033C3F3CD
:4004C000011321FA03F215494A601648D0F89030C3F3072301330069000E0130B2FBF0F08860B2FBF3F3CB600B6103F5742202F23F220D48A0FB0202C2F387420A7503F2C6
:40050000E7330A4AA2FB03239B098B61DB03CB61704700BF0000264000127A008C42020800366E010000214083DE1B43D34D621008B5104BD3F8802122F0404242F080424D
:40054000C3F88021D3F8802142F00042C3F88021D3F8802122F00102C3F88021FFF71EFFFFF71EFF00F0EEF900F0F4F900F0DCFD08BD00BF0000264008B5FFF7B6FE074AC1
:40058000D2F8883043F47003C2F88830BFF34F8FBFF36F8FFFF7ADFE08BD00BF00ED00E008B544F2080398420FD045F20103984207D0B0F5805F0CD10021084601F026F9E8
:4005C00008BD0A88034B1A8008BD0021084601F01DF908BDD874020808B5024801F0EEFD08BD00BFA105081000B583B002F02EFD164B1B88ADF804309DF8053013B9144A6B
:40060000D35C00E00023022B09D1124B1B78022B18D002200F4B187000F0ECF812E00E4B1B78022B09D10B4B1B78012B0AD00120084B187000F0DEF804E00020054B187032
:4006400000F0D8F803B05DF804FB00BFD8740208E87402082C690208E974020810B588B0234B0493234B039341F23853ADF80A30214B019341238DF803301223ADF81C304D
:4006800004AB05930424ADF8184005A801F016FA1623ADF81C3003AB0593ADF8184005A801F00CFA1E23ADF81C300DF10A0305930223ADF8183005A801F000FA1A23ADF8AE
:4006C0001C300DEB04030593ADF8184005A801F0F5F92223ADF81C300DF1030305930123ADF8183005A801F0E9F908B010BD00BFD7A34040A4709DBFEE0CD84300B587B07C
:40070000344B1B88ADF804309DF8053013B9324AD35C00E00023022B58D12E4B5B782F4AD35C13F0FF0F51D12A4B1B88ADF814302B4B5B68052B42D8DFE803F00303141D88
:4007400026341223ADF81030264B02930422ADF80C20D3ED007AB7EE007A77EE877AC3ED007A2CE01623ADF810301F4B02930423ADF80C3023E01A23ADF810301B4B0293CE
:400780000423ADF80C301AE01E23ADF81030154B03F10C0202920222ADF80C209A89013A9A810CE02223ADF81030114B02930123ADF80C3000220A4B5A6000F075F8084AC1
:4007C00053680133536002A80AF072FB07B05DF804FB00BFD8740208E8740208007502082C690208AC420208B0420208B4420208BA42020801280AD010B102280ED0704725
:4008000020220A4B9A600022094B1A7070472022064B5A600122064B1A7070472022034B5A600022024B1A70704700BF8000324034690208094B1B787BB1084B5B7833B1FF
:400840002022074B9A600022044B5A7070472022034B5A600122014B5A707047346902088000324008B50C4B01229A619B690B4BB3F90030002B09DB5A0903F01F03012114
:4008800001FA03F36032064941F82230FFF7D2FF0122044B1A7008BD00022640AC22081000E100E0366902080022014B1A70704736690208014B1878704700BF3669020848
:4008C00010B5174C1749204600F052FD01232362154C1649204600F071F8B4F90030002B08DB5A0903F01F00012181406032104840F82210002B08DB590903F01F03012264
:4009000002FA03F30A4A42F82130054A536943F001035361002000F0ADFCFFF79FFE10BD00022640F8280810AC2208106508081000E100E008B5024800F0DAFA08BD00BFBC
:400940006469020808B500221146042000F0C0F808BD00BF10B500F004FD0446044800F073F9044800F0D4F9204600F0FEFC10BD386902087822081038B50C4B9A680C4B52
:400980009A420ED10D46044619B9FC21094800F07DFC04F11003064A52F8230042F8235038BD1030044B53F8200038BD00ED00E000400208B42208100000081070B338B5B3
:4009C00004460D464368072B03D93621154800F05DFCB4F900306268002B08DB5201D2B203F1604303F5614383F8002305E003F00F035201D2B20C49CA540C4B9A680C4B63
:400A00009A420DD11DB94521064800F03FFC2946B4F90000FFF7B0FF002038BD05487047002038BDB422081014ED00E000ED00E0004002080100560038B50369002B0DDAB0
:400A40000D4604460B0C1B0423B140F2A721044800F01CFCA9B26160002038BD014838BDF822081001008A0038B50368002B01DA002300E0094B73B90D460446C2600B0C9E
:400A80001B0423B140F28E21054800F0FFFBA9B2A160002038BD014838BD00BF01008A00F822081038B504460D4619B99921064800F0ECFB2369002B03DAE3682B6000203B
:400AC00038BD024838BD00BF3823081001008A000F2840D8F8B515460E46044682B979B90F2804D940F29D11214800F0CFFB600100F1804000F50C101E4B18600020F8BDB3
:400B00005DB366B316F01F0F2BD10F2C04D940F29D11174800F0BAFB640104F1804404F50C14144F3C607E60BD60F2080021284601F07AFB00212046FFF77EFF3A4652F87C
:400B4000040B0021FFF790FF68B900213868FFF773FF50B9F8BD084870470748F8BD0648F8BD0548F8BD0548F8BD0448F8BD00BF78230810B86A020803018A0001018A00ED
:400B80002DE9F0411B4B1B68DC68236883422CD90D464609A0EB4610012303FA00F819B900F0DFFB074600E00027124B18680368002B01DA002300E00F4B83B9626852F8E5
:400BC000263018EA030F05D023EA080342F82630002400E0094C0021FFF72EFF00E0084C25B9384600F0C1FB00E0064C2046BDE8F08100BFB86A020801008A000201880086
:400C00000301880004018A000B4B1B68DB681A6882420CD94109A0EB4110012202FA00F05B6853F82130184203D004487047044870470448704700BFB86A02080101880013
:400C400004018A0000018800024B1B680BB9014B18607047C46A02082DE9F8430446884691461E46089F072803D9B421244800F00DFB244B1B682C2000FB04F01C18F5B27E
:400C80001D50C6F307236360360CA6600F2D04D940F29D111C4800F0F9FA6D0105F1804505F50C15256165680F2D04D94FF4DC71154800F0EBFA154B03EB45156561A668AB
:400CC000330C1B0423B14FF4EB710F4800F0DEFA330C1B0423B140F2D7110B4800F0D6FAB3B243EA0646AE60C4F81C90C4F820800023A36117B1B7F90030A381BDE8F883E2
:400D0000B8230810C46A02087823081000102340F0B58FB0044618B950212C4800F0B6FAA369072B03D95421284800F0AFFAE36A1BB95621254800F0A9FAE368072B03D955
:400D40005721224800F0A2FA236A072B03D958211E4800F09BFA236B1BB959211B4800F095FA07AE04F114050FCD0FC62F6802AD26460FCE0FC533682B60079B1933ADF8B8
:400D80003030089B0D93A26AE16A0CAD00953B460A98FFF761FF00210091069B0A460598FFF75AFF216B2846FFF708FEBDF93030002B08DB590903F01F03012202FA03F33D
:400DC000034A42F821300FB0F0BD00BFB823081000E100E0F8B507460E461D4614461AB9FC21224800F052FA072F03D9FD211F4800F04CFA072E03D9FE211C4800F046FA0A
:400E00001B4B1B682C2202FB073002FB06367368012202FA03F31B04476802FA07F70269EAB1B169E9B91268002A01DA002200E0104AC2B92288134323600369DC600123EF
:400E4000B361756204693B0C1B0423B140F28E21094800F01BFABAB2A2600020F8BD0748F8BD0748F8BD0648F8BD00BFB8230810C46A020801008A007823081004028A00A3
:400E800007028A0070B504460E461546072804D940F25F11084800F0F9F9084B1B682C2202FB0434E369AB4204D9236A43F82560002070BD024870BDB8230810C46A0208F6
:400EC0000A028A0038B504460D46072804D94FF4C771054800F0DAF9044B1B682C2202FB0434A56238BD00BFB8230810C46A020870B582B000230193044620B94FF4D97142
:400F0000264800F0C3F9236923B940F2B311234800F0BCF9636923B94FF4DA711F4800F0B5F9236A23B940F2B5111C4800F0AEF96369DD682A0C1CD012041A601B682069C3
:400F40000369002B15DA01A9FFF7ACFD60B9019803681E0CDBB2E269934206D2226A52F8233013B1984700E0002631462069FFF763FDADB275B16369ADB21D601B68636A31
:400F80001BB198470023636202E0A36A03B198470023A36163691B6802B070BDB823081010B50446072804D940F20B210D4800F06DF90D4B1B682C2202FB0434B4F90C3069
:400FC000002B0DDB5A0903F01F03012101FA03F32032064941F82230BFF34F8FBFF36F8F002010BDB8230810C46A020800E100E010B50446072804D940F22A210B4800F033
:4010000045F90B4B1B682C2202FB0434B4F90C30002B08DB590903F01F03012202FA03F3044A42F82130002010BD00BFB8230810C46A020800E100E01F4B98422DD00CD8FD
:4010400040282ED003D8E8B1102828D02FE0802829D0B0F5807F28D029E0184B984228D006D8B0F1204F0DD0154B984212D01EE0144B98420AD00133984209D0023B9842E6
:4010800015D101E0002070470F4870470F4870470F4870474FF4A0007047074870470D4870470D4870470D487047034870470C4870474FF4A400704706005200010000F0B0
:4010C000090000A0040000F0010052000200520003005200010050000200500005005200FF00520008B50C4B1B69002B12DB0B4B1868FFF7A1FF0122094BC3F88C24084BBB
:40110000D3F80C34002BFAD1054BD3F88C34002BF5D108BD034808BD20002340C86A0208000025400200500000B583B05523ADF80030002301930C496846FFF73FFCBDF9C1
:401140000030002B08DB590903F01F03012202FA03F3064A42F82130022205490120FFF791FE03B05DF804FB1D47020800E100E03D48020838B5044600F0F3F82CB1184B9B
:401180005B681F2B03D9002302E0002300E001231D460BB3E368E3B12368E3B1104B99680B46002203E0A34204D01A465B69002BF9D100E000257DB111B9094B9C6000E04A
:4011C0005461226100236361054A53680133536002E0002500E0002500F0C7F8284638BDD86A020838B5044600F0BBF8144B5A680AB399680B4602E0A34204D05B69002BE1
:40120000FAD1002500E00125B5B1A14206D14B695BB10B498B600021196106E019695C694C61596909B11B690B61013A044B5A6012B99A6000E0002500F097F8284638BDC8
:40124000D86A020810B5044605E0084B186800F07FF8A4F50044B4F5004FF6D8044B186800FB04F000F074F810BD00BFA8420208A442020808B5034B1B7800FB03F000F04B
:4012800067F808BDA042020801BEFEE738B50D46044C18220146204600F0CEFFA5610020FFF7F2FF284B0208FEE700BF08B50268254BDA6142681A6282685A62C2689A6254
:4012C0000269DA6242691A6382695A63C2699A631E4A916AD963D16A1964516A5964516B9964926BDA64F1EE103A13F0900F27D0026A154B1A65426A5A65826A9A65C26AFD
:40130000DA65026B1A66426B5A66826B9A66C26BDA66026C1A67426C5A67826C9A67C26CDA67026DC3F88020426DC3F88420826DC3F88820C26DC3F88C20026EC3F8902063
:40134000FFF7B2FF08BD00BF284B020800ED00E00230800803D001300238FCD100BF00BF7047EFF3108072B6704780F310887047002867D038B50546002965D00B7A1BB1A5
:401380000B88B3FA83F35B090C461BB12F212F48FFF77CFF637A1BB16388B3FA83F35B091BB130212948FFF771FFA3791F2B03D931212648FFF76AFF2379032B03D9322154
:4013C0002248FFF763FF6379032B03D933211F48FFF75CFFE379032B03D934211B48FFF755FF6288238843EA0243EB60A3791B0603F0F851E279130403F480330B43227A00
:40140000920002F004021343627A920202F480621343E27A12B14FF4006200E0002213436279120202F440721343A27A0AB1082200E000221343227902F0030213432B6158
:40144000002038BD02487047014838BDF82308100100D60010B50378012B02D0082B29D02EE01B4B1B78012B2CD00320FFF7CCFB184B984228D0FFF774FF174B18600220FB
:4014800001F0E6FD044601F0EEFD022C05D1032805D0052805D1002404E0104C02E0002400E00E4C0D4B9C420FD10B4B1868FFF75CFF0AE0084B1868FFF757FF002404E039
:4014C000064C02E0054C00E0044C204610BD00BFE774020801018800086B0208FF00420008B50378022B1CD0082B14D0012B1ED1124B1B78012B1CD0FFF733FF104B5860D2
:40150000022001F0A5FD022815D00D4B5868FFF72CFF0C4808BD0A4B5868FFF726FF002008BD074B5868FFF720FF064808BD054808BD044808BD002008BD00BFE77402081A
:40154000086B0208FF00420010B5044C2046FFF749FE04F11800FFF745FE10BDC042020810B588B10B4A9060C36A0BB10A4A136000240A4B1C700A4B1C700A4B1C600A4BD7
:401580001C7000F03BF900E0084CFFF7E3F9204610BD00BF086B0208E0740208FC7402080075020804750208017502080100160010B590B0304B0CAC186859689A68DB68D7
:4015C0000FC42822002102A800F02EFE2B4B02930CAB049341F61C53ADF8143004238DF816301B22ADF82020ADF8222003228DF824208DF8253006238DF8263010238DF880
:4016000027308DF829306223ADF82A3001238DF82E301B4C2046FFF7ADFD04F11800FFF7A9FD01F011FD08A801F068FD034600BB144B039302A801F029FD0346B0B9012240
:40164000114B1A700023114A1370114A1370114B9B681A6A00929B6ADB88ADF804301823ADF8063068460AF0CBFA034600210A4A1160184610B010BD38240810F91B0810B2
:40168000C0420208BC4B0208E7740208E8740208E9740208086B02080475020808B5044B1B689847034B1B6803B1984708BD00BF2C6B0208DC74020808B510B1034A526805
:4016C0009047034B1B6803B1984708BD2C6B0208DC74020870B5C0B006460C4615464FF480720849684600F094FD05E016F8012B6A401DF80250013C002CF7D1284640B0ED
:4017000070BD00BF4824081008B5FFF72AFE08BD08B5FFF72AFE08BD08B50120FFF768FC08BD00BF08B5FFF7F7FF08BD08B50120FFF736FC08BD00BF08B5FFF7F7FF08BDD7
:4017400008B5094B58601960012208491046FFF799FB034628B9002205490120FFF792FB0346184608BD00BF2C6B0208B91608109D16081038B515460B46024601210020F4
:40178000FFF728FB044618B129460120FFF79AFB204638BD704700BF704700BF0020704700487047110016000048704711001600004870471100160000487047110016002C
:4017C0000048704711001600004870471100160000487047110016000048704711001600004870471100160000487047110016000048704711001600704700BF08B5024862
:4018000000F0CCFC08BD00BF0C450208F8B5022872D8002972D10022134606E03B4CE45C012C01D90132D2B20133002BF6D0012A0CD1374B1B681C6801EB8102930023447F
:401840005B681B79023BDBB2012B59D8314B1B78002B57D1304B1970E0B92D4F3C68236801EB8105AA009D186668C1EBC1014B001E44B18829822168114449686468E45A09
:401880000C8039680C682244526849680B445B8853801EE001281CD11D4F3C68236801EB8105AA009D186668C1EBC1014B001E44B1892982216811444D6861681944098918
:4018C000298039680C682244526849680B445B895380124B18700E4B1B6818680E4B1B7803EB83039A00104405F02EFF034650B90121084A117006E0094B04E0084B02E008
:40190000084B00E0084B1846F8BD00BFE8740208106B0208E9740208E6740208017502080100160002001600FF00160070B439B9144B1B681B689968CE7F00231D460EE098
:40194000104B1B681B68D968CE7FF6E7CA5C52B10133CC5C1B2C01D0134400E00125B34201D2002DF2D05DB101338279CA54002204E0D4180134855C0D550132052AF8D9F2
:4019800070BC7047106B020870B504460AF052F90546E0B90F4B1968086A228902EB82029300143B03445A6812F0007F0FD0E67B1B695A68CB69D21A06EB460306EB8303FB
:4019C0001344A28821680448184400F022FC284670BD00BF106B0208EC74020830B587B002891A4B1B685B699B889A4229D1044601AB07C883E807000022ADF81020A28939
:401A0000ADF8122040228DF814201846FFF7BCFF054680B923681B7803F002039BB22BB10B4B1B6821460B48984704E0084B1B68214609489847094A137803F0FE031370CA
:401A400000E00025284607B030BD00BF106B0208E07402080500010006000100FC7402084288531E9BB2232B1CD84178E1B910B4104B1868046A02EB82029300143B234442
:401A80005A6812F0007F11D01B695A68C369D31A01EB410001EB80011944074B5B5A1380002004E0012070470120704700205DF8044B7047106B0208EC740208C8B1104B20
:401AC0001B68196A038903EB83039B00143B0B445B6813F0007F0ED100B587B001AB00210491059107C883E807001846FFF74CFF03E00E2070470120704707B05DF804FB14
:401B0000106B02080E4B1B7813F0010F17D100B583B071B18389ADF800300389ADF8023012238DF804308DF80510684609F0A0F902E0C06809F0CAF903B05DF804FB70479F
:401B4000FC74020810B4044688B10023194606E0104A52F82320944200D1012101330D4A1279934206D20029F2D0002003E00021094800E0002050B949B9064B1B792BB995
:401B8000044A42F823400133137100E003485DF8044B704708750208010016000300160070B506460D460020044606E0084B53F824302946304698470134054B1B799C4284
:401BC00004D2044B1B7813F0010FEFD170BD00BF08750208FC74020883792BB100207047C25C32B9013300E00023052BF8D9002070470120704700BF70B58AB004460D4613
:401C0000B94A137843F00103137044F21003984200F0B08136D842F20403984200F0D38014D841F20103984200F0F78003D8B0F5805F60D083E241F20203984200F0F080E8
:401C400041F20303984200F0248178E244F20603984200F0D7810AD843F21203984200F0A78044F20403984200F0278167E244F20803984200F0C28144F20A03984200F091
:401C800076815CE245F20E03984200F0458216D845F20203984200F00E8205D845F20103984200F0EA814AE245F20303984200F01B8245F20C03984200F020823FE245F26B
:401CC0001403984200F031820AD845F20F03984200F0258245F21003984200F023822EE245F21703984200F0238246F20103984200F0C08123E27D4B1E683046FFF76CFFBA
:401D000060B1304606F010FD784E00213068FFF70DFE01213068FFF709FE37E0744B1868836A1B791BB34FF0B05696F8041601F03F0396F8052602F03F0243EA821196F8E3
:401D4000033603F01F0341EA033296F8003603F07F0342EA4343026B1370654A1168096BC3F3072048701268126B1B0C9370604E3368186B06F0D8FC33680021186BFFF7BD
:401D8000D5FD33680121186BFFF7D0FD584B1B68986A023007F0DEF8564A04AB1068516803C304A806F0E4FC0222534B1A70C6E10023514A1370514A13700A20FFF742FAB1
:401DC000FFF7C2FBBBE14E4B1B6813F0010F40F0B6810023ADF810308DF81230444E33689B6A93F900308DF8103004A806F0DAFC33689B6A93F901308DF8103001238DF839
:401E00001130FF238DF8123004A806F0CBFC3C4A136843F00103136091E1FFF7C1FE8EE14978384B1B88ADF81030002319E0364A32F81320ADF808209DF8092012B9334838
:401E4000825C00E00022012A0AD92F4A12F81320914205D12C4A32F81330ADF8103002E00133002BE3D09DF81130FF2B05D104D14FF472712648FFF709FABDF81030ADF887
:401E80001C30ADF81830C3F307232978214AD15455E10B78002B40F052810B7A3BB91E4B0222DA8018229A801C4A1A604B600E4A137803F0FE03137041E1CB78002B40F098
:401EC0003E8149790F4B1B88ADF81030002336E00D4A32F81320ADF80C209DF80D20FAB90A48825C1DE000BFFC740208F0420208106B020848250810E7740208E9740208D4
:401F00000475020850250810E4740208E87402085425081000750208486D0208D86802080022012A0AD98E4A12F81320914205D18B4A32F81330ADF8103002E00133002B5A
:401F4000C6D09DF81130FF2B05D104D14FF472718448FFF79BF9BDF81030ADF82030ADF81030C3F3072301217F4AD154E7E0FFF717FEE4E00B7E012B02D100227B4B1A7055
:401F8000E97E7B4B1B88ADF80C30002319E0744A32F81320ADF810209DF8112012B97548825C00E00022012A0AD96D4A12F81320914205D16A4A32F81330ADF80C3002E0A7
:401FC0000133002BE3D09DF80D30FF2B05D104D14FF472716348FFF759F9BDF80C30ADF82430ADF80C30C3F30723FF2B02D0297E614AD1540222614B1A70A0E002225F4B49
:402000001A709CE0FFF7CCFD5D4B1B7813F0010F00F09580554B1B78012B03D10222534B1A708CE0032B03D10022504B1A7086E0022B40F0848000224C4B1A70514B1B682B
:402040005B68514A1178C1EBC10203EB42039A79002A74D09B88002B71D04C4B1B78002B6DD10120FFF7D2FB002868D101223F4B1A7064E0FFF794FD61E00B88ADF8003044
:402080009DF801301BB902213A4AD15405E023B94FF461713348FFF7F9F86A782988304B23F812106B780021394AD15429462046FFF776FD43E00B88ADF804309DF80530F4
:4020C0001BB900212B4AD15405E023B94FF461712448FFF7DBF86B780021234AD15429462046FFF75DFD2AE00B88ADF810301723ADF8123004A808F0C7FE20E00846FFF73B
:402100006DFC014620B929462046FFF749FD01462846FFF7F7FC12E0FFF742FD0FE0FFF73FFD0CE0FFF73CFD09E0FFF739FD06E00846FFF795FC29462046FFF731FD104BE0
:402140001B7813F0110F09D00D4A137803F0FE031370104B1B682946204698470AB070BDE474020854250810406D0208E974020850250810E8740208446D0208E7740208DA
:40218000FC740208106B0208E67402080175020800750208E07402080020704730B108B5034A10600348FFF7CDFC08BD02487047546D0208992108100100160088B108B5B3
:4021C000094AD062094B1B7833B91046FFF7C8F90122064B1A7000E0002020B9FFF7E8F908BD0348704708BDF4420208586D02080100160010B501390244904207D010F824
:40220000013B11F8014FA342F7D0181B10BD002010BD10B5431E0A44914204D011F8014B03F8014FF8E710BD02440346934202D003F8011BFAE7704710B5034642B111F81A
:40224000014B03F8014B013A002CF7D11A4400E010BD934202D003F8014BFAE710BD0000F8B500BFF8BC08BC9E467047F8B500BFF8BC08BC9E4670470300000001000000F3
:40228000010000000000000005036000040000000100000000000000010000000604600008000000986A020835090810130000000700000047656E6572617465645F536F11
:4022C000757263655C50536F43365C70646C5C647269766572735C7065726970686572616C5C737973696E745C63795F737973696E742E630000000047656E6572617465C6
:40230000645F536F757263655C50536F43365C70646C5C647269766572735C7065726970686572616C5C6970635C63795F6970635F6472762E68000047656E65726174652C
:40234000645F536F757263655C50536F43365C70646C5C647269766572735C7065726970686572616C5C6970635C63795F6970635F6472762E63000047656E6572617465F1
:40238000645F536F757263655C50536F43365C70646C5C647269766572732F7065726970686572616C2F6970632F63795F6970635F6472762E68000047656E657261746533
:4023C000645F536F757263655C50536F43365C70646C5C647269766572735C7065726970686572616C5C6970635C63795F6970635F706970652E630047656E65726174650F
:40240000645F536F757263655C50536F43365C70646C5C647269766572735C7065726970686572616C5C6D637764745C63795F6D637764742E6300002400060030000100E5
:40244000280002002400020000316253C4F5A697B988DBEA7D4C1F2E4372211087B6E5D4FACB98A93E0F5C6D86B7E4D5427320113F0E5D6CFBCA99A8C5F4A7960130635248
:402480007C4D1E2FB889DAEB3D0C5F6EF9C89BAA84B5E6D7407122137E4F1C2DBA8BD8E9C7F6A59403326150BB8AD9E87F4E1D2C02336051C6F7A495F8C99AAB3C0D5E6FFC
:4024C0004170231285B4E7D67A4B1829BE8FDCEDC3F2A1900736655439085B6AFDCC9FAE80B1E2D344752617FCCD9EAF38095A6B4574271681B0E3D2BF8EDDEC7B4A1928FC
:4025000006376455C2F3A0914776251483B2E1D0FECF9CAD3A0B586904356657C0F1A293BD8CDFEE79481B2AC1F0A3920534675678491A2BBC8DDEEF82B3E0D146772415FB
:402540003B0A5968FFCE9DAC3F06000000000000FFFF000047656E6572617465645F536F757263655C50536F43365C70646C5C6D6964646C65776172655C626C655C6379D9
:402580005F626C655F6761702E680000000003000100240001000028010000000B0000000018000000000000020003280100020003000000002A0000000000000300002A5D
:4025C0000100020103000000180000003C430208040003280100020005000000012A0000000000000500012A010002010500000002000000444302080600032801000200D1
:4026000007000000042A0000000000000700042A0100020107000000080000004C430208080003280100020009000000A62A0000000000000900A62A01000201090000008F
:4026400001000000544302080A000328010002000B000000C92A0000000000000B00C92A010002010B000000010000005C4302080C000028010000000F000000011800006E
:40268000000000000D000328010020000F000000052A0000000000000E00052A000020010F00000004000000644302080F00022901010A030F000000020000006C4302084E
:4026C0001000002801000008240000001000000074430208110003280100120014000000100000007C4302081200F0690100120914000000040000008443020813000129BB
:4027000001000201130000000C0000008C4302081400022901010A03140000000200000094430208150003280100120018000000100000009C43020816007C150100120931
:402740001800000004000000A44302081700012901000201170000000C000000AC4302081800022901010A031800000002000000B443020819000328010012001C0000000B
:4027800010000000BC4302081A00FEEC010012091C00000004000000C44302081B000129010002011B0000000C000000CC4302081C00022901010A031C00000002000000B2
:4027C000D44302081D000328010012002000000010000000DC4302081E006945010012092000000002000000E44302081F000129010002011F0000000F000000EC43020815
:402800002000022901010A032000000002000000F443020821000328010012002400000010000000FC430208220021B201001209240000000100000004440208230001292A
:4028400001000201230000000F0000000C4402082400022901010A03240000000200000014440208BB0BB1ECF6BA28A3294429F69CEE8E5DFC7997DFE99BEE90F24A2909A8
:40288000F069434B56708F3F960DFF83FF45B9657C1570E5B0D1E257DADC2981DF43E1B5FEEC0605F190AF7729A6419B2C4AD17A694552D0431AF9128A4BD6901A4C2E4906
:4028C00021B2B020010003000500070009000B000C000E000F00000010001200130014001600170018001A001B001C001E001F0020002200230024007F3E008001001000F5
:4029000001000000000404000104080002041400030C200004042C000506480055710810E9750810E9750810E9750810E9750810D15B0810A55C0810E9750810E9750810B2
:40294000E9750810E9750810E9750810E9750810E9750810E9750810E9750810E97508107D730810C9730810016A0810056C0810E16F08106D4A081000000000882D08103B
:40298000282D08100800000061E4081000000000F82B0810442B08100F0000000000000000000000000000000000000000000000012000007181081006200000B5820810D4
:4029C0000720000085810810082000007582081009200000758308100A200000718008100B200000398308100C2000000183081010200000CD800810112000004D8008107D
:402A0000122000005182081014200000ED82081015200000E580081017200000A18008100E200000D1800810ACFD000047850810ADFD00003B840810A0FD0000B18508100C
:402A4000A1FD00009B840810A2FD0000D7840810A5FD0000A7860810A6FD00000B860810A8FD00000D840810A9FD0000E3830810AAFD0000FF840810ABFD00006D860810D5
:402A8000AFFD0000FD840810C3FD000059860810B0FD0000D1850810B2FD00001F860810051400002B8108102D0C0000058208107B0C0000B38108107C0C0000A98308103F
:402AC00027200F2028201020292010202B200A202C200B202D200D202E200C204E2017200000010001000001000102020300020000000000020201000200000100010005CF
:402B000001000502020300020000000000020501000500007DDC0810E5DD0810EDDC081001010B0102028102820503040403840906090709080909090A09050A0C0B0D0D01
:402B40000E0E0000010000000100000000000000020000000400000002000000030000000700000005000000040000000A00000008000000050000000C0000000B000000EE
:402B8000060000000E0000000D00000007000000100000000F0000000800000013000000110000000900000016000000140000000A0000001700000017000000FF00000038
:402BC00018000000180000000B0000001B000000190000000C0000001D0000001C0000000D0000001F0000001E0000000E000000210000002000000001000000BD000910B1
:402C0000FEFFFFFF89FF081001000000BD0009100600000081020910F8FFFFFF89FF081018001200A5FF0810A000000CFDFC081047FFEDFB89FF0810E8000C00F5FE08107B
:402C40000001200005FE08101FFED3FF89FF0810A000000CF10609105FFFFFFB89FF08100002000049050910FFFDFFFF89FF0810000C000005FC0810FFF3FFFF89FF08101D
:402C8000000A0000A9FE081001000000C9FE0810FEF7FFFF89FF08100020000049FD081000400000F9050910FF9FFFFF89FF0810FFFFFFFF8FFF0810FFFFFFFFFDFB081019
:402CC00000800000F9FB081000000100F5FB0810FF7FFEFF89FF081000800100EDFB0810FF7FFEFF89FF081000008003E9FB0810FFFF7FFC89FF081000801F0AF1FB081043
:402D0000FF7FE0F589FF0810000000000000000000000000000000008700000000000000000000000000000081000000000000000000000082000000010000000100000014
:402D4000010000000200000002000000020000000400000003000000030000000600000005000000F10000000700000007000000F20000000900000008000000FF00000036
:402D80000A0000000A00000002000000810B091001000000810B09100E000000750A091002000000B90A09100C0000005D0A091002000000F90A09100C0000005D0A0910F8
:402DC0000E000000810B09100C000000BD0B0910020000005D0A09100E000000010C0910000000002DE9F05F00250746041D00F1180840682E4E4FF6FF7A88B1616879B166
:402E000080070DD1207A80070AD198F80E0038B12849084600F0A2FB10EA0A0002D044E0354642E02289A37ADFF88C90206858B1C9F800000025A9F80420A9F80650A9F838
:402E400008302946FFF7F0F9A07A801D00F0FF0B5946606800F072F8050021D1404601F06DF905001CD1E06820B1384600F0CCFA050015D1B9F80400B9F80610884206D33D
:402E8000401A80B2594600F0A9FE20B100E05046354628B109E0A07A801DC0B200F0C6F900F0DAF90549012008702846BDE8F09F0100160051310810686D020810450208B9
:402EC00003480078012801D100F018BD704700001045020810B500F073FB0449002008608880C88008810249087010BD686D02081045020870B5044600208A0703D001F0B6
:402F00000302891A091D084B89B2DA889E885518B54206D81D682A442260DA881144D98070BD024870BD0000686D0208030016000148008970470000686D02082DE9F8478D
:402F400005460C460020890000908A466846FFF7D1FF07004BD12748009B0022036017E003F82220062A08D2234803EB820100EB820046784E70408807E005EB8200183811
:402F800003EB820186784E700088521C4880D2B2A242E5D300251EE005F1010909F0FF0015E003EB850203EB8001B2F802C04E88B4450AD991F80180A1F802C092F801C044
:402FC00081F801C0568082F80180401CC0B2A042E7D309F0FF05A542DED347B951466846FFF788FF070002D10449009808603846BDE8F8871445020804290810184502082D
:40300000F0B5002319E05A1C00EB830612E030F8235030F82240A5420BD2778820F8234000EB8204B4F802C0A6F802C020F822506780521C8A42EAD35B1C8B42E3D3F0BD42
:4030400000487047746D020805F0EABCFFF738BF10B5022401F016F810B100F03DFF00B90124204610BD05207047000010B5002428B110220349FFF7CCF8204610BD0248A3
:4030800010BD0000746D020801001600F8B506004FF000008DF8000006F1040407D020892081304601F0C6F8050002D011E01248F8BDA17A6A46606801F096F8050008D1BE
:4030C000E06830B1708C000903D0304600F0FAF905462089208165B93046FFF783FE050007D1304600F09EFF0546A17A6068FFF787FF2846F8BD00000100160038B5040021
:403100004FF00000ADF8000008D06189090A05D1617A102902D8E179102901D90A4838BDA0816946204600F0B9FF0500A089BDF800100844A08104D1102221460348FFF771
:4031400068F8284638BD000001001600746D020870470000002809D005494A68002A05D0011F087852F8200000F0E2BC704700001445020810B50446FFF7DAFEC0B2801D35
:40318000A0420BD30648406840B150F8240000F03BFC002801D000F8044B10BD002010BD14450208F8B516460D460446FFF7C0FEC0B2801DA04203D24FF0FF300090F8BDA5
:4031C000B2B2E9B2684600F049FC0099481C03D00248406840F824100098F8BD144502082DE9F0410746FFF7A3FE801D0B49C6B2002005460C680CE0617839B16188B94209
:4032000002D32078FFF7B6FF002804D1241D6D1CEDB2B542F0D3BDE8F081000014450208002801D0FFF796BF7047000070B506460848002504680AE0617829B16288207871
:40324000121D0023FFF7AEFF241D6D1CEDB2B542F2D370BD144502081CB50024142001908DF800402346064A694606480BF086FE04480068401C01D14FF6FF7420461CBD17
:40328000C13208101C4502080EB50C4A0146002312684FF6FF7004290DD009290AD109200093ADF80800ADF80A30694610460BF062FE80B20EBD04200093F2E71C45020830
:4032C00070B5D0E90054468900890C282DD2DFE800F02C2C0606112C2C152C191C27E0B23246294609F03CF8E0B23246294600F035FD1AE000200BF04DFB16E02878FEF7C7
:403300007BFA12E000F008FE0FE0E8B2022C02D008F06CFD09E0FF2807D002F02BFF04E02846022C03D008F037FE002070BD03F0FBF9FAE70148006800F0C8BA1C45020820
:403340002DE9F0411F4F0026386D60B1796D51B14218891E12F8024C0022FEF7BBF9844201D0194E2BE0002505EB850307EB8304606800B357F82310E9B16289D7F854C02C
:40338000624518D294F80CC01CF0090F02D0FEF740FF0AE009780170606831B1628957F82310083A08310830F1E723691BB10122207B114698476D1CADB2042DD4D33046FA
:4033C000BDE8F081846D0208FFFF1600F0B5C10701D040F008000B4CFF2184F85D10002101250E4601EB810204EB820205FA01F3177B03409F4200D11681491CC9B2042937
:40340000F0D3F0BD846D020870B5124900B3418C114CC1F30711002584F85C10016921654069C4E91505FF2684F85D6028464FF6FF7300EB800204EB8201401C4B8144F8C5
:4034400022500D610E73C0B20D810428F1D30021084670BD01001600846D020810B5174B48B3417839B3002202E04908521CD2B20029FAD102EB8201114A02EB810111F808
:40348000084CFF2C17D103787BB1438821F80A3C946D136D234441F8143C4488936D2344936582680AB141F8042C103942780A72406800230860184610BD00000100160036
:4034C000846D0208F0B5428C234C46690021C2F30712D2B3D3070BD090F8203003EBC30505EB431501EB850101EB031101F14001530715D5C37F2C2513FB05F55FEA857C73
:403500004FF00C0723D003EB430505EBC30307EB830505F00305C5EB830505F11005294492070ED590F821004FF00803C20095070FD003EBC00202F00302C2EBC0020C3233
:403540001144891C8E4200D300242046F0BD0C35E5E70832F4E70000010016000F4A10B5002313600E4A13600E4B18600E4801600E49012008600E49086000020E4990604F
:403580000C4808600D4914300860A0F58A70506000F0D0F800F008FA002010BD38450208204502084C450208504502083C4502082C450208E46E02083045020844450208D3
:4035C0000020704710B501004FF0000010D0094B1A689C681144A14209D25868196010448A0704D001F00302891A091D196010BD002010BD204502082DE9F04102461A4FD7
:40360000002010253B1F4FF0FF38444639681B6807E000EB800605EB86068E59761C1ED0401C9842F5D3601C16D004EB84060C2000EB86000A5002EB42008000FFF7C2FF46
:40364000396841F8260060B1396805EB8602002088507868401C78602046BDE8F0810446E1E74046F9E70000304502082DE9F0410F464FF0FF36002821DB224909688842C7
:403680001DD8E7B1DFF87C8000EB800508F104081020D8F8001000EB85040859401C0ED0FEF74AF8D8F800000C2202EB8502015950F802C04346614504DBFEF733F8304665
:4036C000BDE8F081082101EB8506815950F8250001EB410500EB85003D6805607D684560BD6885601868491C82588A4200D10021815118680159491C0151FEF713F800208D
:40370000DEE700002C450208002803DB08490968884202D94FF0FF307047054900EB8000091D1022096802EB80000858704700002C4502082DE9F0430020134A0427441EE3
:4037400003464FF0080C1025A2F10409506014E000EB8001166807EB8108401C46F8083016680CEB810846F80830166805EB810846F80840166846F82130D9F80010884254
:40378000E6D30020BDE8F083304502082DE9F0410E464FF0FF3700284CDB29490968884248D8EEB3DFF8988000EB800408F104081020D8F8001000EB84054859401C39D0DF
:4037C000FDF7BAFFD8F800004346415949B3042101EB8407C25950F8240002EB420100EB8100521CD0F800C0C6F800C0D0F804C0C6F804C08068B060186850F8240000EB1D
:40380000810000210160416081600C21186801EB84014158914200D10022C251186801E008E009E04159491E4151FDF77BFF0020BDE8F0813846FBE7FDF774FFFAE7000062
:403840002C4502082DE9F0470D4601001E4C4FF00000089E80464FF0FF37206010D0606885420DD262B15EB1642E09D804F10C09C5EBC501D9F8000000EB8104207A10B123
:403880003846BDE8F0870120226020721846FFF7B3FE6060401C13D06681A6812761676199F80410A94201D289F8045041460B4661F30F030A46284600F052F82846E0E734
:4038C00084F80880DCE700003845020810B5002810DB0949496888420CD80749C0EBC0000C31096801EB80004068FFF70DFF08B1002010BD012010BD38450208FEB5174E3F
:403900004FF0FF373D4600240DE03068C4EBC40100EB8100017A29B14068FFF7F5FE08B1254603E0641C3079A042EEDA681C13D03068C5EBC50100EB8104FDF7FDFE6946C3
:403940006068FFF723FF0546FDF7ECFE002DD9D1216868468847D5E7FEBD00004445020838B50024009400F001F838BD1FB500220C49541E00280A6012DB496888420FD836
:403980000849C0EBC0000C31096801EB800001A94068FFF76BFE401C02D0002004B010BD2046FBE738450208F0B50021154A4E1EA2F10C0711710B46BE601EE0C1EBC1004F
:4039C0000425146805EB800566511468082505EB800544F820301468635514680C2505EB8005635314680A2505EB800563531825146805EB8000491C265078688142DDD313
:403A00000020F0BD4445020838B5041E4FF00000009012DB1048007884420EDA0E4D0C35286800EB0411096839B1042101EB04110844694600F047F908B1002038BDFDF743
:403A40007BFE0F21286801EB0411425C521E4254FDF768FE009838BD544502082DE9F74F8A46002500996C1ED21C0C604FF6FC71DFF8B88002EA0107A8F10C0128460A78C5
:403A8000D8F8001005E001EB00131B687BB1401CC0B29042F7D3601C2CD0042000EB041B01EB0B00514600F0FDF818BB01E00446F1E7D8F800000C2101EB041147520E2273
:403AC000D8F8001002EB041207FB0AF001F802A00F22D8F8001002EB041201F802A000F0ABF8D8F8001001EB0411086010B1814600260EE0012516E0D8F8001001EB0B0032
:403B0000494600F0FAF808B1012500E0B944761CF6B25645F0D335B90098046098F80410491C88F804102846BDE8FE8F60450208F8B54FF000070D46041EADF800703ADB58
:403B400025480078844236DADFF88CC00CF10C0CDCF8001001EB0410006860B30C2202EB04128E5A0E2202EB041285428B5C06FB030220D395421ED2002205E002FB060E21
:403B8000AE4504D0521CD2B29A42F7D39FB1042000EB0417C81966466A46294600F0C7F848B9BDF80000012807D030682946384400F0A3F818B10120F8BD0020F8BDFDF7A5
:403BC000BBFD0F21306801EB0411425C521C4254FDF7A8FDF1E70000544502082DE9F0410D46002400F03CF8002821D11149002201F10C034A600C210E264FF00F0E14E0BA
:403C00001F6801EB041C07EB04173A601F6827F80C201F6806EB041C07F80C200EEB041C1F68641CE4B207F80C20AC42E8D31A71BDE8F0815445020800280BD0074AC01CB7
:403C400020F00301506853880144994203D8936851601844704700207047000054450208F8B5064600200E4D00900C01297021466846FFF73FF958B905F10C010098086068
:403C8000301B001F84B221466846FFF733F910B14FF6FF70F8BD6C800098A8600020F8BD5445020830B50D4604000AD0A800FFF7C3FF606028B125704FF0FF3060800020ED
:403CC00030BD012030BD70B50D46040004D01DB1B4F90200002801DA012070BDFDF72CFDB4F90210606850F8210028606088401E6080FDF717FD002070BD70B50D4604001F
:403D000006D02DB12078B4F90210401E814201DB012070BDFDF710FD6088401C00B26080616841F82050FDF7FDFC002070BD70B500231D4610B1B0F902400AE0012070BD1B
:403D4000466856F823608E4201D1012503E05B1CDBB29C42F4DA1570002070BD70B586B015460E460446182200216846FEF75CFA00238DF800308DF80140ADF804506846AA
:403D8000029600F00CF906B070BD00000EB501890091407801900A20ADF808000020ADF80A000348694600680BF0E5F80EBD00001C4502080EB541680091417801910221EB
:403DC000ADF808100089ADF80A000348694600680BF0D1F80EBD00001C45020800F0DEB802490020488000F071B80000684502082DE9F041074621480125002405704FF6E8
:403E0000FF75012F02D0022F2FD10DE0477082801B4A128842F4807282818160174800F0BEF810BB2C4620E0164E012B20D0B6F800C0022B624492B2328010D08160718877
:403E4000091D8A4211D1104947708280098841F400718181094800F0A2F818B103E009684161ECE72C46002030802046BDE8F0814A887280096801610420F5E7146F0208D4
:403E80004C46020868450208D045020870B504460D4600EB4400C20000212846FEF7C4F9074A0020074914711560907150710648FDF746FC08B1002070BD012070BD000047
:403EC0006C4502088D3D0810B53D081001491420FFF7DCBF2C6F020810B5FDF715FC06494A7989798A4201D1012400E00024FDF70FFC204610BD00006C45020805494879C6
:403F0000401CC0B248710A79904201D100204871704700006C45020810B5FDF707FC0B4948798A7990420DD0096800EB400001EBC000AFF21B020649FDF71CFC10B10920BA
:403F4000FFF7A2F9BDE81040FDF7E6BB6C450208FD3E081070B5104C0146A2796379501CC0B2834216D02579854200D193B1206802EB420200EBC2001822FEF74AF9A07965
:403F8000401CC0B2A0712179884201D10020A071012070BD002070BD6C450208704710B5FFF7D8FF0446FFF7B7FF204610BD000010B5124802F0D2FB68B9114801F0EEFFBD
:403FC00048B911490F480860084600F025FA10B90E4809F09FF804000ED1FFF7B1F90404240C04D0002141F2050000F07FF900214FF4805000F07AF9204610BD59570810B9
:40400000035B0810DD9008107C450208B58C081010B504F06FFB03F0A5FCBDE8104004F0F3BC000070B50546041D00F1180600F09BF9124829680160616809888180A17A2C
:4040400003290ED361688979017261684989C1F34701417261688989C180B1798172B17BC17200F091F8002806D100F0A5F8002802D1034A0121117070BD00000C7102086F
:404080007445020810B502F053F9012803D1FFF751F9012800D0002010BD00002DE9F0411C4D0C46060005D0DFF86C8098F8000018B16D1C2846BDE8F081708908F0BCFA6A
:4040C000308808F0BFFA0500F4D1304609F0F2FE0746304603F010FB0744304600F0CAFF384400F634102080304605F05EFC218808442080B17BC1EBC10100EBC10020805D
:40410000304601F0E1FB218808442080A8F80400D0E70000010016007445020810B505F0DBFB03F0F7FA00F077FF09F0EDFE01F089FBBDE8104008F053BA000010B504007C
:4041400010481DD0204608F053FA002818D1204601F086FB002813D1204609F0E1FE00280ED1204600F060FF002809D1204603F0D7FA002804D12046BDE8104005F0B8BB74
:4041800010BD000001001600094810B50949C07A887000F025FF064801F0A0FB002806D103F0D0FABDE81040014805F0DFBB10BD0C7102087445020810B50022084909486A
:4041C00000F0D6FE10F0FF0008D000220449054800F0CEFEBDE8104004F0E2BE10BD0000B13F08101D7E0810F0B5002635461670334616E030F82340082C0AD900EB830749
:404200007F8837B1083C20F823401478641C147005E053B100EB830420F8235065805B1CDBB28B42E6D33046F0BD014EFBE7000001001600F0B52B4B041D002099881B7870
:4042400002460BB12848F0BD274E2368083E4BB127898F4206D3616821B100234FF0020CA57A35E03046F0BD0CEB820431F804E0BEF1000F28D031F822402CB304FB0E3335
:404280009BB23AB1012A0ED0022A11D0032A14D000201BE0B1F800E08C78BEF1230FE1D3032CDFD310E08C8874B1302CDAD30BE00C894CB1282CD5D306E08C8924B1233CA7
:4042C0004FF6BA7E7445CDD20028CCD1521CD2B29542C9D8C5EBC50103EB81018F42C1D3F0BD00007445020809001600034A1268002A02D0002800D0104770470C71020890
:4043000070B5044605F04FFB01F0F4FB00F010FE144D012C11D0022C0ED1002143F21200FFF7E4FF00F020F8FEF7D4FDFFF7F6FEFFF76EFE0020287070BDFEF781FE4489F4
:40434000FFF722FF38B9FFF737FF20B901202870204608F071F9BDE87040002143F20100FFF7C4BF744502080248002101604160816070470C71020830B50C46054600F0C9
:404380000DF8002806D1044A6978126802EB0111C988218030BD0000804502080B4B024642F6137051781B7899420DD2084B1B6803EB01110B7A6FEA03039B0704D4127876
:4043C00009788A4200D1002070470000764502088045020810B50A490A4B027809781B68491EC9B203EB01142478A24202D14170002010BD0029F3D14FF6FF7010BD000005
:4044000076450208804502080249096801EB0010807B70478045020842F6117138B1006828B105490A6822B142F61470704708467047086000207047844502082DE9F74F52
:4044400084B0154604980E4660B1152E05D01E2E0BD9D22E09D0522E07D042F6127007B0BDE8F08F42F61170F9E700200390049890F80180FF208DF808000498FFF78EFFE3
:4044800007002ED1DFF854A542F6147B1B2E0CD01D2E0AD0F0070BD0012E06D0DAF8001001EB0810007BB0421AD1F00703D00FE01E2EF3D0F9E71E2E14D0DAF8001001EB5A
:4044C0000810407B20B1522E0CD0D22E08D109E01D2E07D1DAF8001001EB0810407B08B15F46D6E0012E20D0DAF8001001EB0810C088001DFEF774FE040018D002214FF003
:40450000010942F616700F2E75D013DC4FF005024FF0030729D2DFE806F0282BFB48FA54F971F880F78FF685F5000920E2E742F60577AEE0182E6FD009DCA6F11002082AC6
:4045400013D2DFE802F0E7B5FDE81212EBEB1E2E7ED006DC192E7BD01B2E01D01D2E04D1EEE0522E75D0D22E74D042F612778DE0E878042809D0DAF80030A97803EB081047
:40458000007B401E81420ED105E0DAF8001001EB0810007B38B1A87860712888A071000AE071E878F7E05F4670E02988172901D207466BE0ADF8067028886071000AA07105
:4045C00044E02879012817D01027ADF8061028796071EA88BDF80630BF1C201D7A4318442968FDF716FEBDF80600E98807FB0100ADF806002AE050E00227E6E7ADF8069016
:40460000A88829688200601DFDF703FEBDF80600A98800EB8100EBE7D0E1ADF80610A888801C5CE0286808B1A88828B9012003900020ADF8069000904346012221462846AD
:4046400000F0EEFB070026D00398F8B1267102E061E075E076E100208DF80A008DF80960304600F09FFA04998DF808006A460988ADF80410BDF806100094091DADF80610BA
:404680000146002002F0CAFF070002D02046FEF7C7FD3846E3E6E8889DE1ADF80690AA88601D2968FDF7B5FDBDF80600A988AFE0EA88002A3FF47CAFAA88002AFAD0DAF81D
:4046C000007007EB0813DB885B1E9A42BFF670AF2A68002AEED0ADF80610A888001DA8806071AA88E888BDF806304243201D18442968FDF78EFDBDF80600A988EA8801FB21
:40470000020075E7DBE0BFE0B5E083E047E033E021E003E0DEE0ADF8069097E729890029C8D0ADF80690221D288909F80200BDF80670631D010AF954BDF80600801C4EE00B
:40474000434601222146284600F046FB07009DD1E888C01C4CE729881729FFF429AFADF8067028886071000AA071DAF80020298802EB0810418069E7298800299AD06B8830
:40478000002B97D099423FF613AF6171080AA0716888E071000A2072ADF8062056E72A89002A87D06989002984D08A42EBD8ADF80690221D288909F80200BDF80670631DB0
:4047C000010AF954BDF80670A11D68897854010ABDF80670E01D3954BDF80600001D81B2ADF80610A8898854BDF80610000AC854BDF806004346801C82B2ADF806202146F1
:40480000284600F00DFB0700A1D1BDF80600E9880844EDE629880029B0D06A88002AADD09142B0D8ADF80690211D288809F80100BDF80670631D020AFA54BDF80670A21DE6
:404840006888B854020ABDF80670E01D3A54BDF80600001D82B2ADF80620287D012801D050185EE0A8885054000A67E0022000E010200844BCE62988002992D06171080AF9
:40488000A071ADF80670E1E62988002989D0ADF8069028886071000AA071BDF80600221D801C81B2ADF8061068888854010ABDF80620601D1154BDF80600801C98E6424686
:4048C0002146284600F062FA07009DD1E98809EB41008DE6298800299ED06A88002A9BD091429ED8ADF80690201D298809F80010BDF80670631D0A0AFA54BDF80670A21DC0
:404900006988B9540A0ABDF80670E11D7A54BDF80610091D8AB2ADF80620297D01290AD010441022291DFDF774FC287DBDF8061001289DD19AE7A9881154080ABDF80610A1
:40494000C854F2E7288900283FF411AEADF806902889271D010A09F80700BDF80620601D1154BDF80600801CADF80600DAF8001001EB0810C0880F3880B2E880A98888426B
:4049800000D9E980BDF80600EA8838442968FDF740FC2868FEF744FCBDF80600E988084480B2ADF806003844E96801602969416069698160BDF806000C3019E6297811B1C4
:4049C00001297FF4F5ADADF80690221D287809F80200BDF80600401C0AE600008045020830B50C460546FFF7D9FC002805D1034A6978126802EB01118C7330BD80450208D8
:404A0000F0B40E480023122603600D48012401780A48001F17220568491E05EB011046708460C28042808280037343738473F3D1F0BC1721034A042001F0D0BE844502081E
:404A400076450208C54B0810704700017047000001490020086070478045020801010148FEF748BA8045020870470000044A4079126802EB00108068086000207047000015
:404A8000804502082DE9F843324E0746457930684FF0000800EB05104FF01209846811F1090F2DD011F1050F05D00C22042914D0082949D136E04078122806D008F042F989
:404AC000316801EB051181F80190316824F0040401EB051181F80D8036E04178122906D10092401C3B461C4A1E2108F0C7F83168787A01EB0511401C487344F0040423E0C5
:404B00004078122806D008F01DF9316801EB051181F80190316824F0080401EB051181F80C8011E04178122906D10092401C3B46094A1E2108F0A2F83168787A01EB05115E
:404B4000401C087344F00804306800EB05108460BDE8F88380450208654E081070B5104D04460129286800EB0410816016D140781226122805D008F0E5F8286800EB041038
:404B800046702868012200EB041017218260C18041808180002101734173827370BD000080450208032809D9C10704D01B2804D01D2802D003E01E2801D0F1207047F2208B
:404BC000704700002DE9F04F85B00646032956D803D1002A53D0002B51D04E484FF0FF0A42F6137904784FF001008DF80A008DF804A049488DF805A096F800C0006825466F
:404C00000DF10C0BA4F1010400EB041797F80080C44508D1BF68012F05D08DF8054030788DF8040007E0002CECD1B9F1000F02D0012924D126E0012921D002294CD010783D
:404C4000142801D9162805D31E2858D9D22856D0522854D08DF808A08DF809A00092ADF806309DF808106A46002002F0D7FCA0F53C51123903D1012106200AF063F905B035
:404C8000BDE8F08F6D1E00EB05118968012906D0002DF7D19DF80500FF28F0D0E1E7EAB28DF8052031788DF8041000EB05103178017002211046FFF751FF81208DF8080086
:404CC0008DF8090003A9304600F024FC0720CDF800B0ADF80600DDE7E0B20121FFF73EFF82208DF808008DF8090003A9304600F011FC0720CDF800B0ADF80600B1E78DF8C2
:404D00000900FFF74FFF521C8DF808005B1E0092A5E700007645020880450208F8B50546447A807A0E46012822D1287A81281FD082281DD076B91E2C0CD0E10702D01D2CB7
:404D40000DD005E0522C03D0D22C01D01B2C06D1FF2804D0E00704D01B2C04D108E0082103E01E2C04D16FF004012846FFF78AFE05480768002F06D0E8880090324621465E
:404D8000281D2B68B847F8BD84450208F0B58788012405683B0019D0DFF838E004F1020CDEF8006006EB0216F68866450AD30C4435F8026B26714FEA162666715B1E1FFA94
:404DC0008CF4EBD1F91AC1800020F0BD42F61670F0BD0000804502082DE9F0410489CCB1DFF838C08788961CDCF800C037440CEB031C42F62075BCF806C0674507D80A44F6
:404E00001471240A5471B2B200F00AF805462846BDE8F08142F61670FAE70000804502082DE9F0410D468488016804B151B10C4EA718366806EB0313DB889F4206D99B1A0B
:404E4000C38004E042F61170BDE8F081C480C388A818001D1A46FDF7DCF90020F4E70000804502082DE9F041184E0446407931684FF0000501EB001042F6177780686FEA4D
:404E80000000410701D4691F03E000070DD46FF008012046FFF7F6FD607A3946401C60722560E5802046FFF739FF6079316801EB00104078122807D007F044FF61793268E1
:404EC000122002EB01114870BDE8F0818045020870B50446C38804C8042101F049FC05000FD1617AC8070ED01D2912D0522908D0D22906D01B2904D06FF008012046FFF76E
:404F0000C1FD284670BD5229FBD0D229F9D01E29F2D00421F2E7000020B10449097801700020704741F21300704700008845020810B50E4C2078032804D0022802D041F267
:404F4000120010BD0AF031F800F0F8FF07F0D8FB0AF02AF8FEF742FF07F08AFF00F03EF909F084FC0020207010BD00008845020870B5134D04462878012802D041F211000A
:404F800070BD02202870696009F0EEFF09F060FC00F006F907F03AFF0AF00EF8204606F091FE040003D107F05DFB040002D00120287003E000F054FF09F0FFFF204670BD96
:404FC00088450208054810B50178022904D103210170406800B18047002010BD8845020810B50C4C2078002812D1606009F0C2FF09F0AAFC00F002FBFEF7F2FE09F0E4FF4F
:4050000007F014FC00F0B4FF09F0DFFF0120207010BD0000884502080248002181604160704700009045020838B5044600200090204600F01FF801466846FDF75BFF002858
:4050400012D10B4B009A5A60A17BCC070DD001EB810404EBC101032404EA4104C4EB4101091D11440091996038BD1A246143F8E790450208817B007A4FF003030844C20700
:40508000C0EBC00013D003EA4002C2EB4000001D82B2C8070DD001EB810000EBC10003EA4001C1EB4001091D881880B270474000EEE71A204143F7E72DE9FE4306460D0045
:4050C00041F2114066D0002E64D0304600F0C0FA040023D041F2134741F21448BC4220D0A879022801D003281BD128680090A888ADF80400A8796946801E8DF806003046D8
:4051000000F0A6FA040009D0BC420AD002A9684608F042F838B99DF80800307041F2124437E0444530D130781B49C0EBC003AA798868002400EB43039A7132782B68C2EB70
:40514000C20200EB42021360AB88938001F10C0293793278C2EBC20200EB420253733278C2EBC20200EB4200CA6840F8072F0A8A82800878401CC0B208700849098881427E
:4051800007D109F02BFF04E0BC4202D1284609F023FF2046BDE8FE83904502088446020830B40C480C4C00220088A368401EC0EBC00103EB410100280A608A808A71C1F8E8
:4051C0000720A1F80B204A73F0DC227030BC09F006BF0000844602089045020809F000BF18B5002401468DF800406A46204600F029F8002822D19DF8000000EB800101EB68
:40520000C0020F48416801EB4200427E012A15D144769DF8000000EB800202EBC00001EB4000C0F8064044819DF8000000EB800202EBC00001EB40000460848018BD00003D
:4052400090450208F0B5144C144D06464FF6FF70002364682D7811E003EB830707EBC307012E04EB470705D03F7E8F4204D113700020F0BD7F7E27B15B1CDBB2AB42EBD3B8
:40528000F0BD03EB830000EBC30004EB4000012545760176EBE7000090450208764502081A2100FB01F2024800214068FCF7BCBF9045020838B50D4600218DF8001014464C
:4052C00001466A460020FFF7BDFF00281AD19DF8001001EB810202EBC1030B494A6802EB43012B68CB60AB880B829DF8001001EB810303EBC10102EB41012268C1F81220EF
:40530000A288CA8238BD00009045020838B50D4600218DF80010144601466A460120FFF791FF002825D19DF8001001EB810202EBC10310494A6802EB43012B68C1F8063094
:40534000AB884B815CB19DF8001001EB810303EBC10102EB410123680B60A3888B809DF80010012301EB810404EBC10102EB41014B7638BD9045020810B538B1174A0178CA
:405380001288914205D341F2154010BD41F2114010BD134CC1EBC102A16801EB420300221A609A800378C3EBC30301EB43039A710378C3EBC30301EB430343F8072F9A806C
:4053C0000378C3EBC30301EB43014A732178491E217009F002FE002010BD0000844602089045020841F2114241B138B10E4B02781B889A4204D341F21540704710467047D1
:40540000C2EBC203094A926802EB43035B7B8B710078C0EBC00002EB400050F8072F0A60808888800020704784460208904502082DE9FE434FF0000807460C008DF800801A
:40544000CDF8048041F21140CDF8088008D0002F06D02E4839780088814203D341F21540BDE8FE836A460020FFF7ECFE284D06004FF001091CD19DF80000062200EB8001B5
:4054800001EBC000696801EB4001891D01A8FCF7B1FE68B19DF8000000EB800101EBC000696801EB4000D0F806102160408927E021463846FFF796FF0646A079022822D36B
:4054C0000FD19DF8000000EB800101EBC000696801EB4000C1682160008AA08084F8068011E003280FD19DF8000000EB800101EBC000696801EB4000D0F812102160C08A71
:40550000A08084F806903046AAE70000844602089045020810B5024641F2114000291DD0002A1BD010481378048841F21540A34214D2C3EBC3040D4B9B6803EB4404A479DE
:405540008C711278C2EBC20203EB420213680B6092888A8000228B5C0BB1002010BD521CD2B2062AF7D310BD8446020890450208FEB506464FF000008DF8000001900290F3
:405580000C0041F2114008D0002E06D0194831780088814202D341F21540FEBD6A460020FFF750FE05001ED19DF80020124F02EB820000EBC2007968062201EB400101A8F9
:4055C000FCF718FE78B19DF8000000EB800101EBC000796801EB4000016821608088A0800120A07104E021463046FFF793FF05462846FEBD844602089045020800B587B01F
:4056000003A8FDF733FDBDF81600C00617D508208DF8010001208DF800009DF81A009DF814100844C0EBC0004000ADF80200002002900648806801906846FDF70FFF9DF806
:405640001A00FFF72DFE07B000BD0000904502082DE9FC475FEA0109054641F2114134D095B3DFF880A08E1C0020BAF800402C70ADF80400DFF8708000908DF80600641E78
:40568000D8F80800C4EBC40700EB470199F806208879824204D106224846FCF7ABFDB8B12978BAF80000814218D1D8F808009DF8062000EB4701887982420FD1062268461A
:4056C000FCF798FD38B109E0FFE70846BDE8FC8700262C7004E02C7041F21446002CCEDC3046F3E7844602089045020848B1064A0368D3608088108202F10C0081710020BA
:40570000704741F2114070479045020810B541F2114241B138B10E4B02781B889A4204D341F2154010BD104610BDC2EBC204094A8B79926802EB4404A3710078C0EBC000E1
:4057400002EB40000A68026089888180002010BD844602089045020838B54FF6FF73012915D0022939D0032910D100788DF80100507803EA0020ADF8000011780843ADF891
:405780000000694646F20200FEF7B0FD38BD01781A480172D17803EA01210180947821430180517903EA01214180147921434180D17903EA01218180947921438180517A6E
:4057C00003EA0121C180127A1143C180BDE8384001464FF4C040FEF789BD00788DF80200D07803EA0020ADF8000091780843ADF80000694646F20100C6E70000187102083C
:405800000C4810B5006808B1FDF70AFD0A48006808B1FDF705FD0948006808B1FDF700FD07480068002803D0BDE81040FDF7F8BC10BD0000CC450208B4450208B04502082E
:40584000B845020803490020086003490860034908607047C4450208BC450208B845020838B5044600200090A07BA17910FB01F000EB80008004010C6846FDF73BFB0028F5
:405880001AD10E4900980860A07B00EBC000C1006846FDF72FFB00280ED1094900980860A07B00EB001081006846FDF723FB002802D1044A0099116038BD0000B845020854
:4058C000BC450208C4450208807B00EBC001C90000EB001001EB8000704700002DE9F843644F1E21624C7971017A01B901217970427A02B901223A70817A19B10B46C57A48
:4059000015B102E00123FAE701256B43BB7001B90121F970491E3971C0880025042802D9001FF88000E0FD80C2EBC2008000FDF757FCDFF844810028C8F800007ED0387845
:4059400000EB80008000FDF74BFC4C490028086074D0787800EBC0008000FDF741FC484E002830607DD0002400F08CF82846009537E000EBC001306840F82150009901EB8D
:40598000C10100EB81014D60009901EBC10100EB81018D60009901EBC10100EB8101CD60009901EBC10100EB81010D61009901EBC10100EB81014D61009901EBC10100EBD3
:4059C00081018D61009901EBC10100EB81018D83009901EBC10100EB8100C5830098401C009079788842C4D341462846009528E0C0EBC002086800EB82029560009AC2EB88
:405A0000C20200EB82029581009AC2EBC20200EB8202D581009AC2EBC20200EB82021561009AC2EBC20200EB82029582009AC2EBC20200EB8200C582009800E011E0401C48
:405A400000903A789042D3D32846009505E0684600F024FF0098401C009039788842F6D31CB100F00FF8FFF7CBFE2046BDE8F88303001600A4450208CC450208B4450208C8
:405A8000B045020810B51648164C006830B12178C1EBC1018A000021FCF7C6FB1248006830B1217801EB81018A000021FCF7BCFB0E48006830B1617801EBC1018A000021E3
:405AC000FCF7B2FB0A480068002808D0A178BDE8104001EB81018A000021FCF7A5BB10BDCC450208A4450208B4450208B0450208B845020810B5FFF7C5FFBDE81040FFF784
:405B00007FBE08B569468DF800008DF8012041F20200FEF7EBFB002008BD00002DE9F347284A9DF800000E46126800EB800100F1400912F8218002EB8101002488784D89BD
:405B4000022806D0032806D0052804D0062805D103E0012402E0082400E00424684600F09DFE194FE00711D0184908EBC8003A68096801EBC00005EBC50102EB81012E303A
:405B8000D1F804C0002332464946E04760070DD5A6F50C50383800D100263A6805EBC50002EB80003146C26848469047200707D5396805EBC50001EB80008168484688478B
:405BC000BDE8FC87B4450208B0450208BC4502082DE9FE430E468046082B05D00021304601F088FCBDE8FE8350794FF6FF71147901EA00200443D079957901EA00200543BE
:405C00002548264F402C00780ED300F140018C420AD23A6804EB840102EB8101A1F2FE41097809B1A4F140008DF8080008F0FF02214602A800F0BCFE48B99DF808003968FA
:405C400000EB800001EB80008088A84208D00023022231464046CDE9004501F093FCC1E7082307222146304601F0C6FC0C4906EB0610096801EB8001200A8C75C8750D7613
:405C8000280A4876304601F031FB42F238319DF80800FFF743FFA5E7A4450208B4450208C445020870B50D46082B42D150794FF6FF71167901EA00200643D07901EA0021E6
:405CC000907908431B4940280A781B490B682ED302F1400188422AD200EB800103EB8101A1F2FE41097811B3A0F14004E4B2A2421FD004EB840103EB81018A88B24218D12C
:405D00008978062915D10D4A05EB0511126802EB8101498981420CD10121284601F0EAFB2046BDE8704042F23831FFF7F7BE1446DCE770BDA4450208B4450208C4450208D9
:405D4000F8B50746694600F0D1FA00287BD101220721009800F074F901220821009800F06FF9394E002456F8345025B104236A4602213846A847641C032CF4D30024334DFB
:405D800042F23737324E0CE0296804EB840011F820000099884203D1E0B23946FFF7BEFE641C30788442EFD300242A4D2A4E0FE0296804EB041001EB8000817B39B140686E
:405DC0000099884203D10121204601F093FB641C30788442ECD3214C0098216800EBC00001EBC000018D19B1818DC28C1144818506F0F0FB009901EBC102216801EBC20262
:405E00005085009800EBC00001EBC000343009F0BFFD00984FF6FF7100EBC002206800EBC20291840099FF2201EBC10100EBC10181F82E200099172201EBC10100EBC10037
:405E4000A0F844200020F8BD24710208B4450208A4450208C445020876450208BC450208F0B50021FF270C462E4E2F4D28E001EBC10233694FF6FF7C03EBC200491CA0F8E3
:405E800024C080F82E704FF0170CA0F844C04FF0030CC0F804C0DFF894C09CF800C0C0F808C0DFF88CC09CF800C043F832C04FF0FF32C260C0E90424C477048380F846405A
:405EC00028788142D3D300201A4AF16805E000EB800301EB8303401C1F7413789842F6D37461747014493470002041F83040401C0328FAD300201227B3690DE000EB0012A4
:405F000003EB8201401C8C7395F800C0C1F804C00C8103F822704C7429788842EED3F461F0BD0000AC45020876450208A8450208A7450208A64502082471020870B5002439
:405F4000094D0A4E0BE0E96804EB840001EB8000007CFF2802D0204600F00CF9641C30788442F0D370BD0000AC450208A645020808480949002200780B69401E10F0FF00AD
:405F800000EBC00103EBC1010A854A858A85F4D17047000076450208AC45020818B1034948610020704742F216307047AC4502082DE9F04102461E484FF0FF360078814277
:405FC00002D93046BDE8F0811A481B4C0378246801FB03F505EB850004EB8000002407E004EB840700EB87073F7CFF2F07D0641C9C42F5D30121084608F0A4FFE1E704EBEC
:406000008403002740F8237000EB83008781C78146600274094A01EBC100126852F830305B1E42F83030084600F0A0F92819C9E776450208A7450208B8450208BC45020841
:406040002DE9F04791460D46072908D0082D06D02E4900EB0010096801EB800080882C4980B200EBC0080A6802EBC800C468621C4AD00069274F8A46844225D0396804EB00
:40608000840001EB800017E03A6800EB800602EB86010B7CAB420BD104EB840302EB830249685160B9F1000F03D000F063F800E00446386800EB86004068411CE4D1DAF83A
:4060C000001001EBC8000461DAF800003B6800EBC801C86800EB800203EB82031B7CAB4212D10023CB770B833B6803EB82025268CA600B69834200D10A61B9F1000F03D0EA
:40610000BDE8F04700F036B8BDE8F087C4450208BC450208B8450208F0B4144C024601EBC1032068124D00EBC300C668761C1AD000692E6800EB800006EB80004260206824
:4061400000EBC300026120684FF0FF3200EBC3002B68006900EB800003EB80004260F0BC084600F0E1BA0261C260ECE7BC450208B84502082DE9F05FDFF8F48000EB8004E3
:406180000025D8F800102F4601EB8400027C012A04D0072A0CD0082A51D115E035498068096800EB001001EB8000808885B246E051F82400454608B1FDF732F8286800EB35
:4061C00084008068050C3AE051F824200AB141F82470DFF8A4B086688089DBF8002006EB860AC6EBC60912F82A50244A136803EB89010B8B184480B208838B8A98421ED16B
:406200000869FDF70DF81D4940361FFA86FC0968002301EB89001A4607618782C7820783DBF8001001EB8A0015494089096800EBC00001EB80001946066A6046B047D8F88C
:406240000000FF2140F8247000EB84008781C78101740C4905EBC500096851F83020521C41F830202846BDE8F05F00F07FB80000B8450208C4450208B4450208CC45020832
:40628000B0450208BC45020811B581B0FF24694601A800F02BF840B905490098096800EBC00001EBC00090F8464020461CBD0000BC45020830B50B4B0B4C00221B6824787D
:4062C0000AE002EBC20503EBC505AD8C854202D100200A6030BD521CA242F2D342F2113030BD0000BC45020876450208F0B50E4B00224FF6FF761D680C4B1C780FE002EB8F
:40630000C20305EBC3039F8CB74207D0077893F82E309F4202D100200A60F0BD521CA242EDD342F21130F0BDBC450208764502080C4810B504689CB10B4900200B780DE0DA
:4063400000EBC00104EBC101CA68521C02D10969491C01D0002010BD401C80B29842EFD3012010BDBC45020876450208154B30B4196809B1012400E00024134900EBC00021
:406380000A6852F8301002EBC0004268914202D890F8462092B18268914211D390F84620012A0DD1002280F84620012C08D110F82E2F1B68007E30BC89B218470122F2E726
:4063C00030BC7047C0450208BC4502082DE9F05F3149DFF8C89080464FF0000A81F800A000EBC806D9F8000000EBC600C568681C46D0DFF8ACB005EB85014F46DBF8000097
:4064000000EB8104D9F8000000EBC600C17F008B08440004000C03D14146284600F044F838681FFA88F200EBC601B9461431284600F088F820BB277C012F0ED11949A06850
:40644000096800EB001301EB830181F811A0097C012902D1002101F04DF8D9F8000000EBC600C168A94201D16168C160D4E90150691C05D0082FBED1C0B200F04DFDBAE76D
:40648000D9F8000000EBC600C168491C01D1491E0161BDE8F09F0000AC450208BC450208B8450208C4450208224A10B5126800EB800002EB80000022C4890368234401EB2D
:4064C000C1041D49096801EBC4014B618389C4891B1B9CB20C83037C012B04D0072B10D0082B18D10FE0154A8068126800EB001002EB8000807B08B105220CE00020088300
:4065000010BD027A07E00E4A8068126800EB800002EB8000828811F81F0F001DC0B208702044001F4870000A8870CA70100A087110BD0000B8450208BC450208C445020855
:40654000B44502082DE9F74F0C46C87A898882B0084486B2002001900498464900EBC0074FF0000B086800EBC700B0F82480A8F57F43FF3B04D184F80BB0A4F804B077E0CF
:40658000808D8A4660B371E0DAF8000000EBC700028D0AB1828D1AB3458DB54200D33546721BC07F96B2F8B1002081464FEA182141EA091001998DF8008040EA81108DF8A0
:4065C00001008DF80250280A8DF803000123042269460220FDF70CFCB9F1000F06D011E0012005B0BDE8F08F0120DEE70223E27A04F10C011846FDF7FBFBE07A84F80BB036
:40660000281A85B2A08828B3A84200D80546A84213D3401B0004000CA08010D01648FF21018000232A4602202168FDF7E1FB70B10220049906F010FBD2E7A4F804B0DAF8CD
:4066400000000D4900EBC70080890880E9E7206828442060DAF8000000EBC700C18C491CC184018D11B1818D491E8185002E8BD10020B6E7BC450208D045020810B50F4A68
:406680000F4B12781C6860B159B1521E12F0FF0202EBC20304EBC303198558859985F4D110BD0021521E12F0FF0202EBC20004EBC000018541858185F4D110BD76450208B7
:4066C000BC45020838B50C466946FFF7F3FD002826D1009800EBC0011248006800EBC101CA8CA24201D2002200E0121BCA84009901EBC10100EBC1010A8D62B18A8D224444
:4067000092B28A85009901EBC10100EBC100018D8A4200D98185002C02D0009800F004F838BD0000BC4502080A4A1178002910D1094900EBC003096801EBC3018B8D002B0D
:4067400007D0C968491C04D0012111700021FFF73DBE7047AC450208BC45020818B1034908600020704742F212307047C8450208F8B51C0015460E4604D01DB110B1311FA3
:40678000032902D342F21230F8BD6946FFF7AEFD10B142F25430F8BD009881B20720FFF707FC411C14D0009900EB800246EA014609490B6803EB82018E6043F822508C81A8
:4067C0000422CA81009989B2FFF7A6FC0020F8BD42F21330F8BD0000B845020812B1031F032B02D342F212307047044B03EBC0002038818002600020704700002471020871
:4068000038B5144608B1042902D042F2123038BD6946FFF76BFD10B142F2543038BD05490098096800EBC00001EBC000A0F84440002038BDBC45020830B505460C480D4CAC
:406840000178226842F22B30491E01EB810302EB83039B7813B10029F6D130BD2970236801EB8101002003EB810101228A7030BDA4450208B445020830B4074C0D4604EBED
:40688000C00050F8204C002C04D02846A44630BC0321604730BC7047247102082DE9F041404E04463268002A79D03F4F3968002975D02078002500EB800302EB8302928893
:4068C000402A1DD3C0EBC00001EB80008168B9B18089A8B10846FCF7A3FC2078C0EBC001386800EB81018D602178C1EBC10100EB81018D812178C1EBC10100EB8100C58199
:4069000020783968C0EBC00001EB80000069D0B1FCF786FC2078C0EBC001386800EB81010D612178C1EBC10100EB81018D822178C1EBC10100EB8101CD822178C1EBC1011C
:4069400000EB8100058319480178207800EB8002306800F82210217801EB810100EB81018D80217801EB810100EB8101CD80217801EB810100EB81010D81217801EB810137
:4069800000EB81010D61217801EB810100EB8101CD60217801EB810100EB810085700020BDE8F081B4450208CC4502087645020870B505461048114C40290378246842F211
:4069C000703017D303F14006B14213D201EB810604EB8606A6F2FE4636785EB140398B4206D001EB810314F82330934200D10020297070BD1946F2E7A4450208B4450208CF
:406A00002DE9F04786B04FF0000AADF80AA014460E460546ADF808A0ADF80CA002AF0E2B03D002230022009743E060794FF6FF71227901EA00200243E079A37901EA0020ED
:406A400043EA0008501EFF2802D3022300972EE0607A237A01EA00201843ADF80800E37A894601EA0321ADF80A10A37A1943ADF80A10172803D3172901D3814202D90B23FC
:406A8000009714E004A9104600F01CFB0028DCD1607B09EA0020ADF80C00217B0843ADF80C0001A8FFF7C8FE48B10423009700223146284600F020FB06B0BDE8F0879DF8A0
:406AC00004004A4C00EB80010E23206800F821509DF80410BDF8102001EB810100EB81014A819DF8041001EB810100EB8101A1F804809DF80410BDF8082001EB810100EBBA
:406B000081010A819DF80410394A01EB810100EB81010A619DF80410364A01EB810100EB8100C2609DF80400BDF80C10C0EBC0023148006800EB820291809DF80410BDF81B
:406B40000A20C1EBC10100EB81014A809DF80410BDF80C20C1EBC10100EB81018A809DF804101522C1EBC10100EB8101C1F808A09DF80410C1EBC10100EB8101A1F80CA0F2
:406B80009DF80410C1EBC10100EB8100A0F80EA09DF8047030464037394600F02DFD9DF80400032200EB80012068154C00EB81014E709DF8041001EB810100EB81008270CA
:406BC000BDF81000246800EBC0010C48036803EB8100828B05EBC50004EBC00053F821402E3002AB3946A04766E70000B4450208016E0810156F0810CC450208B04502084F
:406C0000BC4502082DE9F0478946824601EB09105649002586B009680E2B01EB800044897ED151794FF6FF7092F804C000EA01214CEA010CD179DFF83C8100EA0123917923
:406C40000B43ADF81030517A00EA0127ADF81270117A0F43ADF81270D17A00EA0121ADF81410967A3143ADF81410517B167B00EA012006433E48402C0178D8F800001CD391
:406C800001F14002944218D204EB840200EB8202A2F2FE42127882B1A4F14002D2B28DF8042091425ED002EB820100EB81018A78022A57D11EB101252FE00A46EEE7172BC8
:406CC00001D39F4202D942F28136F4E705228A709DF8041001EB810100EB8101A1F804C09DF80410BDF8102001EB810100EB810002819DF80400BDF81410C0EBC0021E480C
:406D0000006800EB820291809DF80410BDF81220C1EBC10100EB810042800121484600E020E000F0E7FB15B101A8FFF7B7FD13490AEBCA0004AB096801EBC0009DF8041034
:406D40002E3001EB8102D8F8001001EB82010C4A4989126801EBC10102EB810132464D682146A84706B0BDE8F0870000C4450208A4450208B4450208CC450208BC450208B4
:406D8000B04502082DE9F04100781C4FC0EBC00500243868921E00EB85032646B3F80CC0BCF1000F07D0D9899C688818604518DC04B30C441EE048784FF6FF7C0CEA002C97
:406DC000087840EA0C00904214DD9881DE81801CFCF706FA04000ED0386800EB8500846008E02046FCF71CFA386800EB850086608681C6812046BDE8F0810000CC4502080B
:406E00002DE9F05FDFF800C104780D46DCF80000C4EBC40600EB86000021C388B3B15B1EC3808389DFF8E4A0DFF8E4B00027E0467BB1C2896546921EB9469A4236DC45D148
:406E40008568A5B14FF001071A4611E042F27131E7E768784FF6FF7303EA00202B7843EA0003A2F10200834208D182B206E00022C0F80890A0F80C90A0F80E909AB1DAF8D6
:406E8000000004EB840300EB8300408900EBC003DBF8000000EB83001346D0F810C0AA1C04F14000E047012F0DD00FE08068FCF7B7F9286800EB8600C0F80890A0F80C9017
:406EC000A0F80E9002E02846FCF7AAF9DAF8000004EB840100EB8100408900EBC001DBF8000000EB8100D8F80010C28B01EB8601C9888A4205D3426904F14000BDE8F05FA7
:406F00001047BDE8F09F0000CC450208B4450208B0450208704700002DE9FC5F81462D4A002001901068C9EBC90600EB86004788818AD0F810A0C08A081A274985B209EBCD
:406F400089000968BAF1000F11F8200000903BD0C5B39346D846DBF8000000EB8600808888B385B308200099FFF722F8411C2BD02C46BD4200D93C46184900EB8002C3469F
:406F80000B6803EB8201C1F80890D8F800C00CEB860CBCF8168008EB0A0C43F822C08C810022CA810099FFF7B7F8DBF8000000EB86008188491E8180291B8DB2C18A214473
:406FC000C182C7E700E002E00020BDE8FC9F0198FBE70000CC450208B4450208B84502082DE9F0478C460646082B60D150794FF6FF71137901EA00200343D079927901EA75
:40700000002002432B48002405782B482F46814601680FE004EB840001EB8008B8F80480984505D111F82000B04201D1254603E0641CE4B2BC42EDD3AF4205D1BDE8F04750
:407040000121604600F056BA1C4FC5EBC506386800EB860188881044B0F5803F02D342F2733402E08880FAB100240121604600F041FA2846FFF750FF386805EB850100EB78
:4070800086008288D9F8000000EB81000C494089096800EBC00001EB80002146836905F14000BDE8F047184742F27434DDE7BDE8F0870000A4450208B4450208CC450208CC
:4070C000B045020830B50A4A0A4B42F2223412781B68521E02EBC20503EB8505AD8B854202D10A80002401E0002AF2D1204630BDA5450208B04502082DE9F041884601EB3B
:407100000810134916461F460968069D01EB80040E2315223146404600F06EFAA675300AE075287820762888000A6076A878A0766888000AE07628792077A888000A60779A
:40714000A777380AE0774046BDE8F04100F0CEB8C44502082DE9FC410646981F1D4614460F46052844D20121384600F0C3F9214907EB0710204A096801EB80001F49408991
:4071800040281CD30B784033984218D2176800EB800307EB8303A3F2FE431B787BB14038C0B28DF80400097881420DD0116800EB800001EB80008078022802D004E0087888
:4071C000EEE701A8FFF76AFB0D480768002F0FD00C4906EBC600AD1E0968A21C01EBC000ABB290F82E008DF8000003216846B847BDE8FC81C4450208B4450208A44502089E
:40720000C8450208BC450208F8B5334E0179427935780068012A01D0022A4ED12F4A127890424AD22E4B00EBC0021B6803EBC202928CA2F57F43FF3B3FD06A4600F080F948
